{"abi":[{"type":"function","name":"equalTo","inputs":[{"name":"a","type":"uint256","internalType":"uint256"}],"outputs":[{"name":"","type":"string","internalType":"string"}],"stateMutability":"pure"},{"type":"function","name":"greterThan","inputs":[{"name":"a","type":"uint256","internalType":"uint256"}],"outputs":[{"name":"","type":"string","internalType":"string"}],"stateMutability":"pure"},{"type":"function","name":"lessThan","inputs":[{"name":"a","type":"uint256","internalType":"uint256"}],"outputs":[{"name":"","type":"string","internalType":"string"}],"stateMutability":"pure"}],"bytecode":{"object":"0x608060405234801561001057600080fd5b506101e5806100206000396000f3fe608060405234801561001057600080fd5b50600436106100415760003560e01c806317232dcc146100465780632ebaad4e1461006f5780639c53122a14610082575b600080fd5b610059610054366004610147565b610095565b6040516100669190610160565b60405180910390f35b61005961007d366004610147565b6100d0565b610059610090366004610147565b61010b565b60608082600a036100ca5750604080518082019091526011815270042206973206c657373207468616e20313607c1b60208201525b92915050565b606080600a8310156100ca5750604080518082019091526011815270042206973206c657373207468616e20313607c1b602082015292915050565b606080600a8311156100ca5750604080518082019091526012815271041206973206772657465727468616e2031360741b602082015292915050565b60006020828403121561015957600080fd5b5035919050565b60006020808352835180602085015260005b8181101561018e57858101830151858201604001528201610172565b506000604082860101526040601f19601f830116850101925050509291505056fea2646970667358221220f34ff96e8bdada58f34ba1e34681bdc7153b452908d1e58cd74b75d44d3bac7364736f6c63430008180033","linkReferences":{}},"methodIdentifiers":{"equalTo(uint256)":"17232dcc","greterThan(uint256)":"9c53122a","lessThan(uint256)":"2ebaad4e"},"id":0}