{"abi":[{"type":"function","name":"hundred","inputs":[],"outputs":[{"name":"","type":"uint256[]","internalType":"uint256[]"}],"stateMutability":"nonpayable"},{"type":"function","name":"oneTohundred","inputs":[{"name":"b","type":"uint256","internalType":"uint256"}],"outputs":[{"name":"","type":"uint256","internalType":"uint256"}],"stateMutability":"nonpayable"}],"bytecode":{"object":"0x608060405234801561001057600080fd5b5061022d806100206000396000f3fe608060405234801561001057600080fd5b50600436106100365760003560e01c80630fde62ad1461003b5780635bff9a2714610061575b600080fd5b61004e61004936600461013c565b610076565b6040519081526020015b60405180910390f35b6100696100ab565b6040516100589190610155565b600060015b828110156100a1578060008082825461009491906101af565b909155505060010161007b565b5050600054919050565b606060015b80600182815481106100c4576100c46101c8565b600091825260209091200155806100da816101de565b915050606481106100b057600180548060200260200160405190810160405280929190818152602001828054801561013157602002820191906000526020600020905b81548152602001906001019080831161011d575b505050505091505090565b60006020828403121561014e57600080fd5b5035919050565b6020808252825182820181905260009190848201906040850190845b8181101561018d57835183529284019291840191600101610171565b50909695505050505050565b634e487b7160e01b600052601160045260246000fd5b808201808211156101c2576101c2610199565b92915050565b634e487b7160e01b600052603260045260246000fd5b6000600182016101f0576101f0610199565b506001019056fea2646970667358221220e6d580ec696d37921f2d394f0831eac98023427f05c8925ee0a8ebd2cb9638fc64736f6c63430008180033","linkReferences":{}},"methodIdentifiers":{"hundred()":"5bff9a27","oneTohundred(uint256)":"0fde62ad"},"id":0}