{"abi":[{"type":"function","name":"count","inputs":[],"outputs":[{"name":"","type":"uint256","internalType":"uint256"}],"stateMutability":"view"},{"type":"function","name":"decrease","inputs":[],"outputs":[],"stateMutability":"nonpayable"},{"type":"function","name":"get","inputs":[],"outputs":[{"name":"","type":"uint256","internalType":"uint256"}],"stateMutability":"view"},{"type":"function","name":"increment","inputs":[],"outputs":[],"stateMutability":"nonpayable"}],"bytecode":{"object":"0x608060405234801561001057600080fd5b5061017e806100206000396000f3fe608060405234801561001057600080fd5b506004361061004c5760003560e01c806306661abd146100515780636d4ce63c1461006c578063d09de08a14610074578063d732d9551461007e575b600080fd5b61005a60005481565b60405190815260200160405180910390f35b60005461005a565b61007c610086565b005b61007c61009f565b6001600080828254610098919061011c565b9091555050565b60008054116100f45760405162461bcd60e51b815260206004820152601860248201527f436f756e7420697320302020736f206e6f742076616c69640000000000000000604482015260640160405180910390fd5b60016000808282546100989190610135565b634e487b7160e01b600052601160045260246000fd5b8082018082111561012f5761012f610106565b92915050565b8181038181111561012f5761012f61010656fea2646970667358221220c2ca436a84d4932df67f4d04ce089a2d2aedfb7b2f574cfeb339c2ca56149be064736f6c63430008180033","linkReferences":{}},"methodIdentifiers":{"count()":"06661abd","decrease()":"d732d955","get()":"6d4ce63c","increment()":"d09de08a"},"id":0}