{"abi":[{"type":"function","name":"count","inputs":[],"outputs":[{"name":"","type":"uint256","internalType":"uint256"}],"stateMutability":"view"},{"type":"function","name":"decrease","inputs":[],"outputs":[],"stateMutability":"nonpayable"},{"type":"function","name":"get","inputs":[],"outputs":[{"name":"","type":"uint256","internalType":"uint256"}],"stateMutability":"view"},{"type":"function","name":"increment","inputs":[],"outputs":[],"stateMutability":"nonpayable"}],"bytecode":{"object":"0x608060405234801561001057600080fd5b50610113806100206000396000f3fe6080604052348015600f57600080fd5b506004361060465760003560e01c806306661abd14604b5780636d4ce63c146065578063d09de08a14606c578063d732d955146074575b600080fd5b605360005481565b60405190815260200160405180910390f35b6000546053565b6072607a565b005b60726091565b6001600080828254608a919060b7565b9091555050565b6001600080828254608a919060cd565b634e487b7160e01b600052601160045260246000fd5b8082018082111560c75760c760a1565b92915050565b8181038181111560c75760c760a156fea2646970667358221220fda47597c2dae1ca2a343f5f955ae2606c3e5d03e473c4bd1452cfa88b3c65a664736f6c63430008180033","linkReferences":{}},"methodIdentifiers":{"count()":"06661abd","decrease()":"d732d955","get()":"6d4ce63c","increment()":"d09de08a"},"id":1}