{"abi":[{"type":"constructor","inputs":[{"name":"_x","type":"uint256","internalType":"uint256"},{"name":"_y","type":"uint256","internalType":"uint256"},{"name":"_at_time","type":"uint256","internalType":"uint256"}],"stateMutability":"nonpayable"},{"type":"function","name":"at_time","inputs":[],"outputs":[{"name":"","type":"uint256","internalType":"uint256"}],"stateMutability":"view"},{"type":"function","name":"owner","inputs":[],"outputs":[{"name":"","type":"address","internalType":"address"}],"stateMutability":"view"},{"type":"function","name":"x","inputs":[],"outputs":[{"name":"","type":"uint256","internalType":"uint256"}],"stateMutability":"view"},{"type":"function","name":"y","inputs":[],"outputs":[{"name":"","type":"uint256","internalType":"uint256"}],"stateMutability":"view"}],"bytecode":{"object":"0x608060405234801561001057600080fd5b5060405161015a38038061015a83398101604081905261002f91610049565b5050600280546001600160a01b0319163317905550610077565b60008060006060848603121561005e57600080fd5b8351925060208401519150604084015190509250925092565b60d5806100856000396000f3fe6080604052348015600f57600080fd5b506004361060465760003560e01c80630c55699c14604b5780638da5cb5b146066578063a56dfe4a14608f578063c7ec5ad9146097575b600080fd5b605360005481565b6040519081526020015b60405180910390f35b6002546078906001600160a01b031681565b6040516001600160a01b039091168152602001605d565b605360015481565b60536003548156fea2646970667358221220a19e35cde9717f7e78cf484fe4b902ca134d3af4db7a5e9a833cd60327fdd0f464736f6c63430008180033","linkReferences":{}},"methodIdentifiers":{"at_time()":"c7ec5ad9","owner()":"8da5cb5b","x()":"0c55699c","y()":"a56dfe4a"},"id":26}