{"abi":[{"type":"constructor","inputs":[],"stateMutability":"nonpayable"},{"type":"function","name":"Welcome","inputs":[],"outputs":[{"name":"","type":"string","internalType":"string"}],"stateMutability":"view"}],"bytecode":{"object":"0x608060405234801561001057600080fd5b506040518060400160405280602081526020017f68656c6c6f2c2057656c636f6d6520746f20746865207765623320776f726c648152506000908161005591906100fc565b506101bb565b634e487b7160e01b600052604160045260246000fd5b600181811c9082168061008557607f821691505b6020821081036100a557634e487b7160e01b600052602260045260246000fd5b50919050565b601f8211156100f7576000816000526020600020601f850160051c810160208610156100d45750805b601f850160051c820191505b818110156100f3578281556001016100e0565b5050505b505050565b81516001600160401b038111156101155761011561005b565b610129816101238454610071565b846100ab565b602080601f83116001811461015e57600084156101465750858301515b600019600386901b1c1916600185901b1785556100f3565b600085815260208120601f198616915b8281101561018d5788860151825594840194600190910190840161016e565b50858210156101ab5787850151600019600388901b60f8161c191681555b5050505050600190811b01905550565b61019b806101ca6000396000f3fe608060405234801561001057600080fd5b506004361061002b5760003560e01c8063d41d385b14610030575b600080fd5b61003861004e565b60405161004591906100dc565b60405180910390f35b6000805461005b9061012b565b80601f01602080910402602001604051908101604052809291908181526020018280546100879061012b565b80156100d45780601f106100a9576101008083540402835291602001916100d4565b820191906000526020600020905b8154815290600101906020018083116100b757829003601f168201915b505050505081565b60006020808352835180602085015260005b8181101561010a578581018301518582016040015282016100ee565b506000604082860101526040601f19601f8301168501019250505092915050565b600181811c9082168061013f57607f821691505b60208210810361015f57634e487b7160e01b600052602260045260246000fd5b5091905056fea2646970667358221220507b7e964d1fd5080a2bc28511678f9e9d552818f70cc2370644f2dc9f79c97f64736f6c63430008180033","linkReferences":{}},"methodIdentifiers":{"Welcome()":"d41d385b"},"id":25}