{"abi":[{"type":"function","name":"read","inputs":[],"outputs":[{"name":"","type":"uint256","internalType":"uint256"}],"stateMutability":"view"},{"type":"function","name":"write","inputs":[{"name":"_a","type":"uint256","internalType":"uint256"}],"outputs":[{"name":"","type":"uint256","internalType":"uint256"}],"stateMutability":"nonpayable"}],"bytecode":{"object":"0x6080604052606460015534801561001557600080fd5b5060ed806100246000396000f3fe6080604052348015600f57600080fd5b506004361060325760003560e01c80632f048afa14603757806357de26a4146058575b600080fd5b604660423660046075565b605f565b60405190815260200160405180910390f35b6001546046565b6000606a826064608d565b600081905592915050565b600060208284031215608657600080fd5b5035919050565b808202811582820484141760b157634e487b7160e01b600052601160045260246000fd5b9291505056fea2646970667358221220b8f38f8aeb45507534e77ac1bafd8db518b8e5d6e261be44b871cac01fd0fdea64736f6c63430008180033","linkReferences":{}},"methodIdentifiers":{"read()":"57de26a4","write(uint256)":"2f048afa"},"id":0}