{"abi":[{"type":"function","name":"a","inputs":[],"outputs":[{"name":"","type":"uint256","internalType":"uint256"}],"stateMutability":"view"},{"type":"function","name":"addition","inputs":[],"outputs":[{"name":"","type":"uint256","internalType":"uint256"}],"stateMutability":"view"},{"type":"function","name":"b","inputs":[],"outputs":[{"name":"","type":"uint256","internalType":"uint256"}],"stateMutability":"view"},{"type":"function","name":"divideation","inputs":[],"outputs":[{"name":"","type":"uint256","internalType":"uint256"}],"stateMutability":"view"},{"type":"function","name":"modulo","inputs":[],"outputs":[{"name":"","type":"uint256","internalType":"uint256"}],"stateMutability":"view"},{"type":"function","name":"multiplication","inputs":[],"outputs":[{"name":"","type":"uint256","internalType":"uint256"}],"stateMutability":"view"},{"type":"function","name":"subtraction","inputs":[],"outputs":[{"name":"","type":"uint256","internalType":"uint256"}],"stateMutability":"view"}],"bytecode":{"object":"0x6080604052600a600055600560015534801561001a57600080fd5b506101fa8061002a6000396000f3fe608060405234801561001057600080fd5b506004361061007d5760003560e01c80632dbf38701161005b5780632dbf3870146100ad5780634df7e3d0146100b5578063e3ec0251146100be578063ec597128146100c657600080fd5b8063011285da146100825780630dbe671f1461009c57806329745262146100a5575b600080fd5b61008a6100ce565b60405190815260200160405180910390f35b61008a60005481565b61008a6100e5565b61008a6100f7565b61008a60015481565b61008a610109565b61008a61011b565b60006001546000546100e09190610143565b905090565b60006001546000546100e09190610176565b60006001546000546100e0919061018a565b60006001546000546100e0919061019e565b60006001546000546100e091906101b1565b634e487b7160e01b600052601160045260246000fd5b808202811582820484141761015a5761015a61012d565b92915050565b634e487b7160e01b600052601260045260246000fd5b60008261018557610185610160565b500690565b60008261019957610199610160565b500490565b8181038181111561015a5761015a61012d565b8082018082111561015a5761015a61012d56fea2646970667358221220152d671ecf2870483bddd8ec8ca8a8093df2d75d6413c52e53e806df6c45b4ea64736f6c63430008180033","linkReferences":{}},"methodIdentifiers":{"a()":"0dbe671f","addition()":"ec597128","b()":"4df7e3d0","divideation()":"2dbf3870","modulo()":"29745262","multiplication()":"011285da","subtraction()":"e3ec0251"},"id":1}