{"abi":[{"type":"function","name":"globalvariable","inputs":[],"outputs":[{"name":"","type":"uint256","internalType":"uint256"}],"stateMutability":"view"},{"type":"function","name":"localVar","inputs":[],"outputs":[{"name":"","type":"uint8","internalType":"uint8"}],"stateMutability":"pure"}],"bytecode":{"object":"0x60806040526032600055348015601457600080fd5b50608e806100236000396000f3fe6080604052348015600f57600080fd5b506004361060325760003560e01c8063112a83ac1460375780639d9c61a614604b575b600080fd5b604051603281526020015b60405180910390f35b604051428152602001604256fea2646970667358221220b6ac584ec2718ec1171599c5dbf32edf5af24c3f63292e0f6e9054a6931a66e764736f6c63430008180033","linkReferences":{}},"methodIdentifiers":{"globalvariable()":"9d9c61a6","localVar()":"112a83ac"},"id":1}