{"abi":[{"type":"constructor","inputs":[],"stateMutability":"nonpayable"},{"type":"function","name":"orginal","inputs":[],"outputs":[],"stateMutability":"nonpayable"},{"type":"function","name":"owner","inputs":[],"outputs":[{"name":"","type":"address","internalType":"address"}],"stateMutability":"view"},{"type":"function","name":"status","inputs":[],"outputs":[{"name":"","type":"bool","internalType":"bool"}],"stateMutability":"view"}],"bytecode":{"object":"0x608060405234801561001057600080fd5b50600180546001600160a01b03191633179055610152806100326000396000f3fe608060405234801561001057600080fd5b50600436106100415760003560e01c8063200d2ed2146100465780638da5cb5b1461006f578063e49349211461009a575b600080fd5b60015461005a90600160a01b900460ff1681565b60405190151581526020015b60405180910390f35b600154610082906001600160a01b031681565b6040516001600160a01b039091168152602001610066565b6100a26100a4565b005b6001546001600160a01b031673f39fd6e51aad88f6f4ce6ab8827279cfffb92266146101025760405162461bcd60e51b81526020600482015260096024820152682737ba1037bbb732b960b91b604482015260640160405180910390fd5b60646000556001805460ff60a01b1916600160a01b17905556fea2646970667358221220c456412bd3c5fcf7561a7e28106640f818d0b1220377e1d741b2cceffcc0e32e64736f6c63430008180033","linkReferences":{}},"methodIdentifiers":{"orginal()":"e4934921","owner()":"8da5cb5b","status()":"200d2ed2"},"id":28}